S01700004763634170706C69636174696F6E352E7372656357
S11300000C94E8000C9405010C9405010C94050172
S11300100C9405010C9445010C9405010C94050104
S11300200C9405010C9405010C9405010C94050134
S11300300C9405010C9405010C9405010C94050124
S11300400C947E080C9405010C9405010C94050194
S11300500C9431060C94EF050C9405010C940501E5
S11300600C9405010C9405010C9405010C940501F4
S11300700C9405010C9405010C94050150726573F0
S113008073206120627574746F6E20746F207374B2
S113009061727420616761696E0047414D45204F6C
S11300A05645520043535345323031302F373230A6
S11300B03120536E616B652050726F6A65637420E2
S11300C062792034343337333338382D4E69636BD7
S11300D000536E616B650042013F013B0137013300
S11300E0012F012B01270123011F01B101AD01A93A
S11300F001A501A1019D019901950192018E018A39
S113010001860181017D017901750170016C01682D
S11301100163015F015A01550150014B014601641D
S113012092927D6C92926D809EA0C17C92924DE4DD
S1130130A2A29D182848FF4492926D468A92634277
S1130140FE037C92A27D868A92A2C3E0100E10E187
S1130150C6281028C7FC021C02FDF8040204F9FC9E
S11301600202FD8080FE80816492924DFE90986729
S11301707C828A7C03FE9090617C82827DFE2010CA
S1130180FFFE403040FFFE020203FE1028C70402B7
S113019002FD82FE83FE1010FF7C82925DFE909031
S11301A081FE929283FE82827D7C828245FE9292BF
S11301B06D7E90907F1B5B3F32356C001B5B25642A
S11301C06D001B5B324A001B5B25643B25644800C1
S11301D011241FBECFEFD8E0DEBFCDBF11E0A0E0F9
S11301E0B1E0EEEDF9E102C005900D92A633B1073E
S11301F0D9F722E0A6E3B1E001C01D92AA39B20703
S1130200E1F70E943C040C94ED0C0C940000E8E629
S1130210F0E0808182608083D99AECE6F0E080810E
S11302208F608083109236010895109236010895EC
S11302308091360118163CF5809137016FB7F89418
S1130240909136019230B4F021E030E091E0F90170
S1130250E95CFE4F4081F901EA5CFE4F40839F5FF9
S1130260292F30E040913601042E000C550B241741
S113027035076CF3909136019150909336016623C3
S11302801CF4789408958FEF08951F920F920FB67F
S11302900F9211242F933F934F935F936F937F9308
S11302A08F939F93EF93FF9343B14F7080913601E7
S11302B0883064F580E090E0642F70E09B01082EA4
S11302C002C0359527950A94E2F720FF1BC02091C0
S11302D03F0130E0082E02C0359527950A94E2F7D5
S11302E020FD10C0E091360121E02E0F209336014D
S11302F00E2E000CFF0BE95CFE4F8083209136012B
S1130300283024F4019684309105C1F640933F01CE
S1130310FF91EF919F918F917F916F915F914F9199
S11303203F912F910F900FBE0F901F901895109230
S11303307701089530917701131684F49091780130
S1130340891771F0E9E7F1E090E003C021912817E3
S113035049F09F5F3913FACF8FEF08958FEF089517
S113036080E00895892F08950E949A0191E08F3FBB
S113037009F490E0892F0895FF920F931F93CF9370
S1130380DF93809177018830D4F500E010E0D0E06D
S1130390C0E002C00F5F1F4F2C2FCC0F330B2D5F1B
S11303A03F4F200F311F2F703078332334F4215006
S11303B03109206F3F6F2F5F3F4F822FC22F6D2F68
S11303C0DD0F770B6B5F7F4F67707078772334F4A2
S11303D061507109686F7F6F6F5F7F4FD62F0E94E6
S11303E0F602F82E0336110561F00E94A60781116A
S11303F0D1CF8F2D0E94B4018111CCCF04C088E0ED
S11304000FC088E00DC080917701E82F082E000C02
S1130410FF0BE858FE4FF0828F5F809377018F2D9A
S1130420DF91CF911F910F91FF9008958823B4F02D
S113043020917701821794F48F5F821764F4E82F78
S1130440082E000CFF0BE858FE4F908131979083E3
S11304508F5F8217A4F321502093770108951F938F
S1130460CF93DF93C82F162F0E94EE02D82F8C2F24
S11304700E94EB02412F6D2F0E94A402DF91CF91C5
S11304801F910895CF93DF930E94E7020E94840690
S11304900E94A5066FE00E942F020E94AE0660EF44
S11304A00E942F020E949701C3E00E94BC01D82F32
S11304B00E94F002882321F063E38D2F0E942F0213
S11304C0C15099F7DF91CF9108950F931F93CF9364
S11304D0DF930E94A506D82F0E94BA06C82F88234E
S11304E04CF10E94A506182F8EEF8C0F823080F4F9
S11304F0812F0E949A010E9416020E94BC01082FBB
S11305000E94F002882321F063E3802F0E942F02CF
S1130510CD7FC13029F40E946D0760E00E942F0254
S113052060EF8D2F0E942F026FE0812F0E942F0217
S113053081E001C080E0DF91CF911F910F91089578
S113054080E80E94C90708951F93CF93DF938031F9
S1130550B0F46830A0F4142FC62FD82F81E00E9485
S1130560F1076C2F677080E1689F900111248D2F33
S11305708F70822B0E94F107812F0E94F107DF9177
S1130580CF911F9108950F931F93CF93DF938031E1
S113059090F48B01C82F83E00E94F1078C2F8F7099
S11305A00E94F107E801085F1F4F89910E94F1073B
S11305B0C017D107D1F7DF91CF911F910F91089503
S11305C084E00E94F10782E00E94F10708958FE021
S11305D00E94F107089582958F7008958F70089591
S11305E083FB882780F991E08927089520E1829F81
S11305F0C00111246770862B08950E94A0020E94F6
S1130600070140E060E07BE480E090E00E949C050C
S11306100E942F0878940895FF920F931F93CF930D
S1130620DF9380E00E9419080E9410080E942608A7
S113063063E083E00E94F70781ED90E09F938F933E
S11306400E94DD0965E083E00E94F70780E20E94D2
S1130650190884EA90E09F938F930E94DD0985E254
S11306600E9419080E94E7020F900F900F900F90BC
S1130670CFE00F2EFFE0FF2EF02D0FEF10EFD5E1AE
S11306806C2F8DE191E00E9465040DC02FE78CE290
S113069093E0215080409040E1F700C000000E94A8
S11306A018018F3FA9F50E9474048111EFCF0E94B5
S11306B04809DC01CB0183709927AA27B078BB23B2
S11306C054F40197A109B1098C6F9F6FAF6FBF6F8D
S11306D00196A11DB11D81309105A105B10591F0CF
S11306E02CF4892B8A2B8B2B59F0CACF823091059D
S11306F0A105B10549F00397A105B10539F0C0CFB3
S1130700CD2FBECFCF2DBCCFC02FBACFC12FB8CFE6
S1130710DF91CF911F910F91FF9008950E941008CF
S11307200E9442020E9447040E9415010E94EA05A9
S113073008954F925F926F927F92BF92CF92DF9211
S1130740EF92FF920F931F93CF93DF930E944D0874
S11307506B017C01D0E0BB24BA9404E912E00E944E
S11307601801C82F8F3F09F051C00E94E305882368
S113077071F1F801808191810E949F09D11104C017
S11307808B31F1F18B2D08C0D13021F48B35D1F1AF
S11307908B2D02C0D230C1F58334D9F5D0E081E08D
S11307A00E94840714C0D0E080E00E9484070FC038
S11307B0C33011F0843421F483E00E94840707C01D
S11307C0C13011F0823419F482E00E9484070E943F
S11307D04D0826013701F8E54F0EF2E05F1E611C5B
S11307E0711C641575058605970508F4B8CF0E9439
S11307F065028823B1F00E944D086B017C01AFCFE4
S1130800D1E0E5CFD2E0E3CFD0E0E1CF882339F2E5
S113081004C0813441F2D0E0CBCF823029F28B2D59
S1130820C7CFDF91CF911F910F91FF90EF90DF9091
S1130830CF90BF907F906F905F904F9008956EE03F
S11308408AE00E94F7078AE990E09F938F930E94C1
S1130850DD096FE08AE00E94F7078CE790E09F9340
S11308608F930E94DD090F900F900F900F900E94BC
S113087018018F3FE1F308950E94FD020E940C03CA
S11308800E948E030E9499030E941F04F9CF1092C4
S113089040011092410110924201109243010895C7
S11308A04091400150914101609142017091430196
S11308B0480F591F611D711D409340015093410120
S11308C060934201709343010895609304019093EF
S11308D048018093470110924A01109249011092F5
S11308E046011092450108950F931F93CF93DF9310
S11308F0CDB7DEB728970FB6F894DEBF0FBECDBFD5
S1130900E0914901F0914A01309781F0149110FF70
S113091006C010924A011092490100E06BC0319662
S1130920F0934A01E093490100E064C0E09145017D
S1130930F0914601309709F449C0CF010196909394
S1130940460180934501E081E1110AC010924601FD
S11309501092450180E18093440100E010E04AC018
S11309608FE98E0F8A3170F4F0E0EE0FFF1FE75D20
S1130970FF4F8591949190934A018093490100E03F
S113098010E038C08FEB8E0F8A3170F4F0E0EE0F78
S1130990FF1FE759FF4F8591949190934A018093EB
S11309A0490100E010E026C080ED8E0F8A3000F58A
S11309B0F0E0EE0FFF1FE958FF4F8591949190935B
S11309C04A018093490100E010E014C0809147017E
S11309D09091480101E0009709F000E090934601EE
S11309E080934501109248011092470110E002C023
S11309F000E010E00E94E00220910401FE0138961C
S1130A00CE010196112314F4208301C01082110F2A
S1130A103197E817F907B1F71982BE016F5F7F4F6D
S1130A208FE00E94C30280914401882389F08150A1
S1130A3080934401002311F0882311F090E003C057
S1130A4091E001C091E081E0992329F080E003C0A6
S1130A500023A1F3F7CF28960FB6F894DEBF0FBE9C
S1130A60CDBFDF91CF911F910F910895CF93C82FE0
S1130A708A3019F48DE00E9436059FB7907802C041
S1130A80992329F1809181018F3FD1F3F894E0916A
S1130A90800181E08E0F80938001F0E0EE57FE4FDD
S1130AA0C083809181018F5F809381018091800157
S1130AB08F3F11F410928001E1ECF0E080818062BC
S1130AC08083992339F0789480E090E005C081E038
S1130AD090E002C080E090E0CF910895809193026D
S1130AE08823E1F32FB72078F89480918102309124
S1130AF0930290E0831B91095AF4E0918102809162
S1130B009302F0E0E81BF109EE56FD4F80810AC024
S1130B10E091810280919302F0E0E81BF109EE5725
S1130B20FD4F8081909193029150909393022223E0
S1130B3009F0789490E00895109280011092810158
S1130B4010928102109293021092920240934B01F0
S1130B50DC01CB01880F991FAA1FBB1F880F991FA7
S1130B60AA1FBB1F9C01AD01220F331F441F551F39
S1130B7060E072E18AE790E00E94BC08BA01A90132
S1130B804F5F5F4F6F4F7F4FDB01CA011AF401962D
S1130B90A11DB11DB595A79597958795019790933C
S1130BA0C5008093C400E1ECF0E088E1808380819B
S1130BB080688083E4E9F2E085E091E093838283B6
S1130BC09183808308959091930281E0911101C0F3
S1130BD080E00895109281021092930208951F926A
S1130BE00F920FB60F9211242F938F939F93EF932D
S1130BF0FF9380918101882329F1809180012091C4
S1130C00810190E0821B91095AF4E0918001809166
S1130C108101F0E0E81BF109EF57FD4F90810AC014
S1130C20E091800180918101F0E0E81BF109EE5729
S1130C30FE4F908180918101815080938101909336
S1130C40C60005C0E1ECF0E080818F7D8083FF91D8
S1130C50EF919F918F912F910F900FBE0F901F9046
S1130C6018951F920F920FB60F9211242F933F9352
S1130C704F935F936F937F938F939F93AF93BF93A0
S1130C80CF93EF93FF93C091C60080914B018823CB
S1130C9049F0809181018F3F29F060E070E08C2F52
S1130CA00E94360580919302803120F081E0809388
S1130CB0920218C0CD3009F4CAE0E091810281E0CB
S1130CC08E0F80938102F0E0EE57FD4FC083809138
S1130CD093028F5F8093930280918102803111F49B
S1130CE010928102FF91EF91CF91BF91AF919F91AB
S1130CF08F917F916F915F914F913F912F910F90C1
S1130D000FBE0F901F9018950F931F93CF9382E0FF
S1130D108093500110924E01C1E0C0934F0161E0F5
S1130D2081E00E94F60201E511E0F801808361E0B0
S1130D3082E00E94F602F8018183C0934D01C093C2
S1130D404C01CF911F910F910895E0914F010E2E08
S1130D50000CFF0BEF5AFE4F80810895E0914E0185
S1130D600E2E000CFF0BEF5AFE4F808108958091E8
S1130D70500108951F93CF93DF93809150018132E6
S1130D8008F0A0C0E0914F010E2E000CFF0BEF5AAB
S1130D90FE4F80810E94EB02182FC82FE0914F0173
S1130DA00E2E000CFF0BEF5AFE4F80810E94EE02C4
S1130DB0D82F90914C019130A9F028F0923081F114
S1130DC09330F9F03BC0873031F481E090E00E9429
S1130DD05004D0E033C0D1E0D80F81E090E00E940D
S1130DE050042CC01F3031F481E090E00E94500484
S1130DF0C0E024C0C1E0C10F81E090E00E94500433
S1130E001DC0113031F481E090E00E945004C0E133
S1130E1015C0CFEFC10F81E090E00E9450040EC0D6
S1130E20813031F481E090E00E945004D8E006C0A3
S1130E30DFEFD80F81E090E00E9450046D2F8C2FDB
S1130E400E94F60290914C0190934D0140914E0105
S1130E50042E000C550B30914F01632F032E000C10
S1130E60770BDB01AF5ABE4FFA01EF5AFE4F04C0B5
S1130E702C919081291741F146175707C9F73F5F15
S1130E80313219F030934F0102C010924F01E091BA
S1130E904F010E2E000CFF0BEF5AFE4F80839091F2
S1130EA050019F5F909350010E94B401882371F018
S1130EB080915001813260F484E090E00E945004FB
S1130EC082E007C08DEF05C08EEF03C081E001C052
S1130ED083E0DF91CF911F91089590914E01E92F06
S1130EE0092E000CFF0BEF5AFE4F80819F5F913259
S1130EF019F090934E0102C010924E01909150014E
S1130F00915090935001089590914D01913089F042
S1130F10A8F0923019F0933039F015C0811104C053
S1130F2082E080934C010895813019F490934C0130
S1130F300895833019F490934C010895823019F484
S1130F4090934C01089580934C01089590914E0123
S1130F5030914F0140E00DC0E92F092E000CFF0B2A
S1130F60EF5AFE4F2081281789F09F5F91320CF0D1
S1130F70942F9313F1CFE32F330FFF0BEF5AFE4F50
S1130F8091E02081281719F090E001C091E0892FA9
S1130F90089594B1906B94B92C9A90E59CBD8830D7
S1130FA021F0803211F0823019F491E09DBD01C02E
S1130FB01DBC803269F028F4883071F0803161F012
S1130FC00EC0803429F0803851F48CB581608CBD1A
S1130FD08CB582608CBD03C08CB581608CBD2C98AF
S1130FE008958EBD0DB407FEFDCF8EB50895282F4C
S1130FF0082E000C330B3F938F93862F062E000C84
S1131000990B9F936F9387EC91E09F938F930E942A
S1131010DD090F900F900F900F900F900F9008958F
S113102082EC91E09F938F930E94DD090F900F90C3
S113103008951F928F938CEB91E09F938F930E945E
S1131040DD090F900F900F900F90089585EB91E0BC
S11310509F938F930E94DD090F900F900895109233
S1131060730110927401109275011092760116BCEE
S11310708CE787BD82E084BD83E085BDEEE6F0E0C9
S113108080818260808385B3827085BB8FEF81B954
S113109081E087B91092720108952FB7F894609196
S11310A073017091740180917501909176012223EE
S11310B00CF478940895611114C09DEC899F912DCE
S11310C01124969596959695990F292F220F220F04
S11310D0920F891BE82FF0E0ED5EFE4F808182B90C
S11310E00895EDEC8E9FE12D1124E695E695E695A5
S11310F0F0E0ED5EFE4F808182B908951F920F9259
S11311000FB60F9211242F933F934F935F936F93D6
S11311107F938F939F93AF93BF93CF93EF93FF935B
S11311208091730190917401A0917501B091760141
S11311300196A11DB11D8093730190937401A09336
S11311407501B0937601C09172010E94B7066C2FAD
S11311500E945B08FF91EF91CF91BF91AF919F9156
S11311608F917F916F915F914F913F912F910F904C
S11311700FBE0F901F901895052E97FB1EF4009438
S11311800E94D30857FD07D00E94DB0807FC03D058
S11311904EF40C94D30850954095309521953F4FCB
S11311A04F4F5F4F089590958095709561957F4F4F
S11311B08F4F9F4F0895A1E21A2EAA1BBB1BFD015E
S11311C00DC0AA1FBB1FEE1FFF1FA217B307E40722
S11311D0F50720F0A21BB30BE40BF50B661F771F7A
S11311E0881F991F1A9469F760957095809590955A
S11311F09B01AC01BD01CF0108958F929F92AF92E4
S1131200BF92CF92DF92EF92FF92CF93DF93EC01E4
S1131210688179818A819B816115710581059105B8
S113122021F464E279ED8BE597E02DE133EF41E0C1
S113123050E00E94BC0849015A019B01AC01A7EA95
S1131240B1E40E94940C6B017C01ACEEB4EFA501F7
S113125094010E94A20CDC01CB018C0D9D1DAE1DDE
S1131260BF1DB7FF03C00197A109B04888839983C4
S1131270AA83BB83BC01CD019F77DF91CF91FF90FF
S1131280EF90DF90CF90BF90AF909F908F90089594
S11312908F929F92AF92BF92CF92DF92EF92FF9282
S11312A0609100017091010180910201909103010C
S11312B0611571058105910521F464E279ED8BE5F1
S11312C097E02DE133EF41E050E00E94BC08490172
S11312D05A019B01AC01A7EAB1E40E94940C6B0192
S11312E07C01ACEEB4EFA50194010E94A20CDC01D8
S11312F0CB018C0D9D1DAE1DBF1DB7FF03C0019713
S1131300A109B0488093000190930101A0930201C8
S1131310B0930301BC01CD019F77FF90EF90DF9064
S1131320CF90BF90AF909F908F90089560930001ED
S11313307093010180930201909303010895CF9368
S1131340DF93EC012B8120FF33C026FF0AC02F7BE3
S11313502B838E819F8101969F838E838A8190E067
S113136029C022FF0FC0E881F9818081082E000C7A
S1131370990B009719F420622B831AC03196F983D4
S1131380E8830EC0EA85FB85099597FF09C02B8188
S1131390019611F080E201C080E1822B8B8308C0AA
S11313A02E813F812F5F3F4F3F832E83992702C0B9
S11313B08FEF9FEFDF91CF910895A0E0B0E0E3EECF
S11313C0F9E00C94B50CAE01495F5F4FDA016D9101
S11313D07D91AD0104E912E0F80182819381DC0181
S11313E013962C911397286013962C930E94030A4A
S11313F0D8011296ED91FC9113972381277F2383C3
S1131400E4E00C94D10CABE0B0E0E9E0FAE00C9439
S1131410A70C6C017B018A01FC011782168283816F
S113142081FFCCC1CE0101963C01F6019381F70105
S113143093FD859193FF81917F01882309F4BAC1BB
S1131440853239F493FD859193FF81917F01853233
S113145029F4B60190E00E94FA0BE7CF912C212CDD
S1131460312CFFE1F315D8F08B3279F038F4803267
S113147079F08332A1F4232D20611DC08D3261F0F7
S1131480803369F4232D216016C0832D8260382EA9
S1131490E32DE4603E2E2AC0F32DF8601DC037FC16
S11314A02DC020ED280F2A3040F08E32B9F436FCDE
S11314B081C1232D2064322E19C036FE06C08AE075
S11314C0989E200D1124922E11C0EAE02E9E200D2C
S11314D01124222EF32DF0623F2E08C08C3621F405
S11314E0832D8068382E02C0883641F4F70193FDBD
S11314F0859193FF81917F018111B3CF982F9F7DB7
S11315009554933028F40C5F1F4F9FE399830DC0CB
S1131510833631F0833771F0833509F059C021C027
S1131520F801808189830E5F1F4F88248394912C56
S1131530530113C02801F2E04F0E511CF801A080A2
S1131540B18036FE03C0692D70E002C06FEF7FEFFB
S1131550C5010E94EF0B4C018201F32DFF773F2E52
S113156016C0280122E0420E511CF801A080B1806F
S113157036FE03C0692D70E002C06FEF7FEFC50136
S11315800E94E40B4C01F32DF0683F2E820133FCE2
S11315901BC0822D90E088169906B0F4B60180E253
S11315A090E00E94FA0B2A94F4CFF50137FC859160
S11315B037FE81915F01B60190E00E94FA0B211081
S11315C02A9421E0821A91088114910471F7E8C0E9
S11315D0843611F0893641F5F80137FE07C0608181
S11315E07181828193810C5F1F4F08C0608171817A
S11315F0072E000C880B990B0E5F1F4FF32DFF76FF
S11316003F2E97FF09C090958095709561957F4F07
S11316108F4F9F4FF0683F2E2AE030E0A3010E94D5
S1131620360C882E861845C0853731F4232D2F7E3D
S1131630B22E2AE030E025C0932D997FB92E8F3643
S1131640C1F018F4883579F0B5C0803719F08837BF
S113165021F0B0C0E92FE061BE2EB4FE0DC0FB2D19
S1131660F460BF2E09C034FE0AC0292F2660B22EB2
S113167006C028E030E005C020E130E002C020E1EF
S113168032E0F801B7FE07C06081718182819381E5
S11316900C5F1F4F06C06081718180E090E00E5F97
S11316A01F4FA3010E94360C882E8618FB2DFF774E
S11316B03F2E36FE0DC0232D2E7FA22E891458F402
S11316C034FE0BC032FC09C0832D8E7EA82E05C0CB
S11316D0B82CA32C03C0B82C01C0B92CA4FE0FC095
S11316E0FE01E80DF11D8081803321F49A2D997E4D
S11316F0A92E09C0A2FE06C0B394B39404C08A2DD7
S1131700867809F0B394A3FC11C0A0FE06C0B214FD
S113171088F4280C922C9B180EC0B21460F4B60105
S113172080E290E00E94FA0BB394F7CFB21418F45D
S11317302B1802C0982C212CA4FE10C0B60180E303
S113174090E00E94FA0BA2FE17C0A1FC03C088E738
S113175090E002C088E590E0B6010CC08A2D86783E
S113176059F0A1FE02C08BE201C080E2A7FC8DE229
S1131770B60190E00E94FA0B891438F4B60180E3B4
S113178090E00E94FA0B9A94F7CF8A94F301E80D43
S1131790F11D8081B60190E00E94FA0B8110F5CF13
S11317A0222009F442CEB60180E290E00E94FA0BB6
S11317B02A94F6CFF6018681978102C08FEF9FEFBE
S11317C02B96E2E10C94C30CFC010590615070402F
S11317D00110D8F7809590958E0F9F1F0895FC01F6
S11317E06150704001900110D8F7809590958E0F4C
S11317F09F1F08950F931F93CF93DF93FB012381C2
S113180021FD03C08FEF9FEF2CC022FF16C046813D
S11318105781248135814217530744F4A081B18153
S11318209D012F5F3F4F318320838C932681378125
S11318302F5F3F4F3783268314C08B01EC01FB01DC
S11318400084F185E02D0995892BE1F6D8011696DF
S11318508D919C911797019617969C938E9316974A
S1131860CE01DF91CF911F910F910895FA01AA271C
S1131870283051F1203181F1E8946F936E7F6E5FCF
S11318807F4F8F4F9F4FAF4FB1E03ED0B4E03CD07D
S1131890670F781F891F9A1FA11D680F791F8A1F60
S11318A0911DA11D6A0F711D811D911DA11D20D0C7
S11318B009F468943F912AE0269F11243019305D81
S11318C03193DEF6CF010895462F4770405D419372
S11318D0B3E00FD0C9F7F6CF462F4F70405D4A33BF
S11318E018F0495D31FD4052419302D0A9F7EACF87
S11318F0B4E0A6959795879577956795BA95C9F7B6
S113190000976105710508959B01AC010A2E0694A8
S11319105795479537952795BA95C9F7620F731F61
S1131920841F951FA01D08950E94DE0CA59F900D95
S1131930B49F900DA49F800D911D11240895B7FFAD
S11319400C94940C0E94940C821B930B08952F9278
S11319503F924F925F926F927F928F929F92AF923B
S1131960BF92CF92DF92EF92FF920F931F93CF9388
S1131970DF93CDB7DEB7CA1BDB0B0FB6F894DEBF1F
S11319800FBECDBF09942A88398848885F846E8445
S11319907D848C849B84AA84B984C884DF80EE808F
S11319A0FD800C811B81AA81B981CE0FD11D0FB698
S11319B0F894DEBF0FBECDBFED010895A29FB00124
S11319C0B39FC001A39F700D811D1124911DB29F6F
S11119D0700D811D1124911D0895F894FFCF10
S11319DE010000000F000000030000000036056E39
S11319EE0500003F065B4F666D7D077F6F534E41CA
S11319FE4B45204259204E49434B202D203434333D
S1091A0E373333383800C1
S9030000FC
